:020000040800F2
:10000000B41400205D150008A9260008B5260008D4
:10001000BD260008C5260008CD2600080000000007
:10002000000000000000000000000000D5260008CD
:10003000E126000800000000ED260008F92600086F
:10004000CD150008CD150008CD150008CD15000808
:10005000CD150008CD150008CD150008CD150008F8
:10006000CD150008CD150008CD150008CD150008E8
:10007000CD150008CD150008CD150008CD150008D8
:10008000CD150008CD150008CD150008CD150008C8
:10009000CD150008CD150008CD150008CD150008B8
:1000A000CD150008CD150008CD150008CD150008A8
:1000B000CD150008CD150008CD150008CD15000898
:1000C000CD150008CD150008CD150008CD15000888
:1000D000CD150008CD150008CD150008CD15000878
:1000E000CD150008CD15000805270008CD1500081E
:1000F000CD150008CD150008CD150008CD15000858
:10010000CD150008CD150008CD150008CD15000847
:10011000CD150008CD150008CD150008CD15000837
:10012000CD150008CD150008CD150008CD15000827
:10013000CD150008CD150008CD150008CD15000817
:10014000CD150008CD150008CD1500083927000889
:10015000CD150008CD150008CD150008CD150008F7
:10016000CD150008CD150008CD150008CD150008E7
:10017000CD150008CD150008CD150008CD150008D7
:10018000CD150008CD15000890B484B000AF02462C
:100190000B46FA71BB710023FB60BB7903F00303CC
:1001A0009B000F2202FA03F3FB60154BBA79920809
:1001B000D2B21349B8798008C0B2023051F8200099
:1001C000F968C9430140023243F822100C4BBA7956
:1001D0009208D2B20A49B8798008C0B2023051F808
:1001E0002000FC79B97901F00301890004FA01F1DA
:1001F0000143023243F822101037BD4690BC7047CD
:100200000038014080B485B000AF78600023FB6007
:100210007B68DB684FF0FF325A607B68DB684FF029
:10022000FF325A61FB7B43F08003FB737B7B43F01F
:1002300008037B737B68DB68FA689A611437BD46F4
:100240005DF8047B704700BF80B586B000AF786072
:100250000023FB7400237B610023FB60032002F07A
:10026000A9FD7B68DB681B69FB607B6901337B61EF
:100270007A69174B9A4201D9002325E0FB68C3F342
:10028000C073DBB2002BE9D000237B61FB6843F035
:100290000103FB607B68DB68FA681A617B68DB68D6
:1002A0001B69FB607B6901337B617A69084B9A4269
:1002B00000D905E0FB68C3F30003DBB2012BEDD0EE
:1002C000032002F077FDFB7C18461837BD4680BD41
:1002D000400D030080B489B000AFF860B960FA71D6
:1002E000BB800023FB76FB68DB78002B22D1002348
:1002F0007B610023FB61BB880333002B00DA0333EF
:100300009B107B61FB79FA6832339B0013449B6836
:100310003B610023FB6109E0BB681A683B691A6016
:10032000FB690133FB61BB680433BB60FA697B691D
:100330009A42F1D3FB7E18462437BD465DF8047B14
:10034000704700BF80B489B000AFF860B960134651
:10035000FB800023FB61FB880333002B00DA0333AF
:100360009B10BB61FB68D3F8D0307B610023FB613D
:1003700009E07B691A68BB681A60FB690133FB619D
:10038000BB680433BB60FA69BB699A42F1D3BB68AE
:1003900018462437BD465DF8047B704780B487B0AB
:1003A00000AF78600B46FB7000233B610023FB73BA
:1003B0007B680022DA707B6801229A707B68402299
:1003C0009A80FB78012B13D14FF0A0433B617B68EF
:1003D0000122DA727B6808221A707B6804225A7044
:1003E0007B684FF4A072DA807B6802221A7211E0F7
:1003F000FB78002B0ED1454B3B617B680022DA7203
:100400007B680C221A707B6806225A707B684FF456
:10041000A062DA803A697B68DA603B6903F50063C1
:100420001A467B681A6100237B611CE07B695A01D4
:100430003B69134403F510631A4679687B690433FA
:100440009B000B449A607B695A013B69134403F596
:1004500030631A4679687B6914339B000B445A60F9
:100460007B6901337B617B685B781A467B699A42C2
:10047000DCD83B6903F580631A467B685A613B69A7
:1004800003F588631A467B68C3F8CC2000237B61A0
:100490000FE07B695A013B69134403F5A0631A46D8
:1004A00079687B6922339B000B449A607B69013336
:1004B0007B617B681B781A467B699A42E9D80023E6
:1004C0007B610FE07B691A033B69134403F580539A
:1004D0001A4679687B6932339B000B449A607B69CA
:1004E00001337B617B681B781A467B699A42E9D8A5
:1004F0003B6903F560631A467B68C3F80C21FB7BFC
:1005000018461C37BD465DF8047B70470000044068
:1005100080B588B000AF78600023FB770023BB6113
:1005200000237B610023FB607B681B7A012B4FD18A
:100530007B68DB689B6B7B61BB7D6FF30003BB75E6
:100540007B685B7A002B03D0BB7D43F01003BB7547
:100550007B68DB687A699A630023BB617B68DB6830
:10056000DB68BB613B7E6FF386133B76BB7E6FF32C
:100570008613BB763B7E43F010033B763B7E6FF3E6
:10058000C3033B763B7E6FF3C7133B76BB7E6FF3B3
:100590004103BB76BB7E6FF3C303BB767B68DB682E
:1005A000BA69DA607868FFF74FFE7B68DB78012B69
:1005B00040F082803B7B052262F344033B733B7B2C
:1005C00043F020033B737B68DB68FA689A6073E052
:1005D0007B68DB68DB68BB613B7E43F040033B76B6
:1005E0007B68DB68BA69DA607868FFF72DFE002364
:1005F0007B61BB7D43F00103BB757B681B7A032BDA
:1006000003D1BB7D43F00203BB75BB7D43F0040304
:10061000BB75BB7D43F00803BB75BB7D43F0200376
:10062000BB757B685B7A002B03D0BB7D43F0100366
:10063000BB757B68DB687A699A63142002F0DEFB85
:100640007B68DB68DB68BB617B681B7A032B03D1AB
:10065000BB7E43F00103BB767B68DB68BA69DA6076
:100660007B681B7A032B27D17B68DB681B6B3B61A4
:10067000FB7C012262F38303FB74BB7C6FF3C71323
:10068000BB74FB7C43F01003FB74BB7C2D2262F334
:100690000603BB747B68DB683A691A63C82002F002
:1006A000ADFBBB7C43F08003BB747B68DB683A69BD
:1006B0001A63C82002F0A2FB7B68DB78012B10D103
:1006C0007B68DB689B68FB603B7B052262F344032D
:1006D0003B733B7B43F020033B737B68DB68FA682A
:1006E0009A60FB7F18462037BD4680BD80B485B038
:1006F00000AF78600023FB730023BB603B7A43F0BC
:1007000001033B727B68DB687A68D2689168BA68DB
:100710000A439A60FB7B18461437BD465DF8047B9C
:10072000704700BF80B485B000AF78600023FB73D2
:100730000023BB603B7A43F001033B727B68DB68BC
:100740007A68D2689168BA68D2430A409A60FB7BA3
:1007500018461437BD465DF8047B704780B586B0F7
:1007600000AF786039600023FB7400237B610023B5
:10077000FB60FB6843F02003FB603B68DBB203F0E7
:100780001F03DAB2FB6862F38A13FB607B68DB68E5
:10079000FA681A617B68DB681B69FB607B6901335F
:1007A0007B617A69084B9A4200D905E0FB68C3F384
:1007B0004013DBB2012BEDD0032002F0FBFAFB7CEF
:1007C00018461837BD4680BD400D030080B586B081
:1007D00000AF78600023FB7400237B610023FB6083
:1007E000FB6843F01003FB607B68DB68FA681A6102
:1007F0007B68DB681B69FB607B6901337B617A691D
:10080000084B9A4200D905E0FB68C3F30013DBB242
:10081000012BEDD0032002F0CDFAFB7C18461837EF
:10082000BD4680BD400D030080B584B000AF786048
:100830000B46FB700023FB737B68DB68DB68BB60E7
:10084000FB7A6FF34513FB72FB7A6FF38613FB722F
:10085000FB78012B04D1FB7A43F02003FB7206E006
:10086000FB78002B03D1FB7A43F04003FB727B68DB
:10087000DB68BA68DA60322002F0C0FAFB7B184607
:100880001037BD4680BD00BF80B483B000AF786034
:100890007B68DB685B6903F0010318460C37BD46D3
:1008A0005DF8047B704700BF80B582B000AF786010
:1008B0007868FFF7E9FF0346012B0CBF00230123F3
:1008C000DBB218460837BD4680BD00BF80B485B096
:1008D00000AF78600023FB607B68DB685B69FB60CE
:1008E0007B68DB689B69FA681340FB60FB6818460D
:1008F0001437BD465DF8047B704700BF80B485B0F7
:1009000000AF78600B46FB707B681B691B68FB605F
:10091000FB7803F00303DAB23B7B62F301033B7322
:100920007B681B69FA681A601437BD465DF8047B62
:10093000704700BF80B58CB000AF7860002387F8A7
:100940002B3000237B6200233B620023FB610023EA
:10095000BB6100237B617B68D3F80C3100221A60F5
:100960007B681B691B683B6297F821306FF3C403F7
:1009700087F821307B681B693A6A1A607B68DB7AEA
:10098000012B40D178680321FFF7B8FF7B68DB6853
:1009900080225A62FB8B402262F30F03FB83BB8BE6
:1009A000802262F30F03BB837B68DB68FA699A627B
:1009B000BA8BFB8B13449BB23B837B8B802262F30D
:1009C0000F037B837B68DB68BA69C3F804213A8B29
:1009D0007B8B13449BB23B837B8B6FF30F037B8337
:1009E0007B68DB68BA69C3F808213A8B7B8B1344B8
:1009F0009BB23B837B8B6FF30F037B837B68DB684E
:100A0000BA69C3F80C2178681021FFF7A7FE78684F
:100A1000FFF7DCFE7B681B6900221A617B681B699B
:100A200000225A617B681B694FF0FF329A617B6834
:100A30001B690022DA610023FB623AE07A68FB6AF4
:100A400004339B0013449B681B687B6297F8273034
:100A5000C3F3C013DBB2002B0ED000237B6297F8E8
:100A6000273043F0400387F8273097F8273043F0CA
:100A7000080387F8273001E000237B627A68FB6A6D
:100A800004339B0013449B687A6A1A607A68FB6A95
:100A900004339B0013449B6800221A617A68FB6A46
:100AA00004339B0013449B68FF229A60FB6A013366
:100AB000FB627B685B781A46FB6A9A42BED80023C9
:100AC000FB6235E07A68FB6A14339B0013445B6871
:100AD0001B68FB60FB7BC3F3C013DBB2002B0AD0A7
:100AE0000023FB60FB7B43F04003FB73FB7B43F085
:100AF0000803FB7301E00023FB607A68FB6A143390
:100B00009B0013445B68FA681A607A68FB6A1433C6
:100B10009B0013445B6800221A617A68FB6A1433F5
:100B20009B0013445B68FF229A60FB6A0133FB62FF
:100B30007B685B781A46FB6A9A42C3D800237B61C4
:100B40007B7D43F001037B757B681B697A681269C2
:100B500011697A69D24311407A690A431A617B6844
:100B6000DB78012B1BD100233B613B7C43F001036D
:100B70003B743B7C43F002033B743B8A402262F3AC
:100B80008A033B82BB7C43F00103BB747B8A402217
:100B900062F349037B827B681B693A691A63786850
:100BA00000F006F897F82B3018463037BD4680BD68
:100BB00080B584B000AF78600023FB730023BB6076
:100BC0007B68DB6800229A617B68DB684FF0FF324C
:100BD0005A617868FFF716FB7B68DB78002B03D13E
:100BE0003B7A43F010033B727B7A43F008037B723D
:100BF0007B7A43F010037B727B7A43F020037B7295
:100C0000BB7A43F00403BB72BB7A43F00803BB72A8
:100C10003B7A43F008033B72BB7A43F01003BB728C
:100C2000BB7A43F02003BB727B68DB687A68D268CA
:100C30009169BA68D2431140BA680A439A61FB7B52
:100C400018461037BD4680BD80B485B000AF7860CF
:100C50000023FB737B681B699B68BB603B7AC3F313
:100C60004103DBB2022B09D0032B04D0012B02D0AD
:100C70000323FB7305E00223FB7302E00123FB73F4
:100C800000BFFB7B18461437BD465DF8047B7047F8
:100C900080B487B000AF78600023FB750023BB6091
:100CA0007B681B699B683B617B689B691B68FB6079
:100CB0003B7CC3F34103DBB2022B04D0BB896FF34F
:100CC0000A03BB8105E0BB89032262F30A03BB81EF
:100CD00000BF7B689B69FA681A607B7A43F0010366
:100CE0007B727B681B697A6812695168BA68D24363
:100CF0001140BA680A435A60FB7D18461C37BD464E
:100D00005DF8047B704700BF80B487B000AF7860A7
:100D100039600023FB740023FB600023BB603B6849
:100D20005B78012B0FD13B681B787A6804339B00FA
:100D300013449B687B613B681B78012202FA03F332
:100D40009BB23B810EE03B681B787A6814339B00B2
:100D500013445B687B613B681B78012202FA03F352
:100D60009BB27B817B691B68FB607B7BC3F3C013F9
:100D7000DBB2002B27D13B689B689BB2C3F30A030D
:100D80009AB2BB8962F30A03BB813B68DB7803F04C
:100D90000303DAB2BB7B62F38303BB733B68DB887C
:100DA000DBB203F00F03DAB2FB8962F38913FB8134
:100DB000FB7B43F01003FB737B7B43F080037B736F
:100DC000FA687B691A607B681B697A681269D16965
:100DD000BA680A43DA61FB7C18461C37BD465DF8E9
:100DE000047B704780B487B000AF7860396000231F
:100DF000FB740023FB600023BB603B685B78012B26
:100E00000FD13B681B787A6804339B0013449B68BE
:100E10007B613B681B78012202FA03F39BB23B81A2
:100E20000EE03B681B787A6814339B0013445B68C0
:100E30007B613B681B78012202FA03F39BB27B8142
:100E40007B7B6FF3C7137B73FA687B691A607B68DF
:100E50001B697A681269D169BA68D2430A40DA61BB
:100E6000FB7C18461C37BD465DF8047B704700BF0D
:100E700080B588B000AF786039600023FB7700232D
:100E8000BB6100237B6100233B613B685B78012BE6
:100E900040F0AB803B681B787A6804339B001344B6
:100EA0009B681B687B613B681B787A6804339B00F6
:100EB00013449B681B693B613B685B69002B09D14C
:100EC0003B696FF312033B617B8A012262F3CC031F
:100ED0007B8222E03B685B69C3F312023B6962F3E9
:100EE00012033B613B685A693B689B6813445A1E76
:100EF0003B689B68B2FBF3F39BB2C3F309039AB25E
:100F00007B8A62F3CC037B823B68DB78012B04D1C4
:100F1000FB7C012262F34613FB743B681B787A6802
:100F200004339B0013449B683A691A617B68DB7841
:100F3000012B0AD13B681B787A6804339B00134469
:100F40009B683A6812695A6115E03B68DB78012BAF
:100F500011D03B685B69002B0DD03B681B780122E8
:100F600002FA03F3BB617B681B697A681269516BF3
:100F7000BA690A435A633B68DB78012B14D17B685A
:100F80001B699B68FB60FB68C3F30D239BB203F0F6
:100F90000103002B04D1FB7D43F02003FB7503E02C
:100FA000FB7D43F01003FB75FB7D43F00403FB75F1
:100FB000FB7D43F08003FB753B681B787A68043344
:100FC0009B0013449B687A691A603B68DB78012BAD
:100FD00040F088803B68D9683B681A783B685B6959
:100FE0009BB27868FFF776F97CE03B681B787A68FB
:100FF00014339B0013445B681B687B613B681B7860
:101000007A6814339B0013445B681B693B613B683F
:101010005B69002B0DD13B689B68C3F312023B69EF
:1010200062F312033B617B8A012262F3CC037B8271
:101030001FE03B685A693B689B6813445A1E3B6833
:101040009B68B2FBF3F39BB2C3F309039AB27B8AAA
:1010500062F3CC037B827B8AC3F3C9039BB23A68F9
:10106000926802FB03F3C3F312023B6962F31203BB
:101070003B613B681B787A6814339B0013445B68C0
:101080003A691A617B68DB78012B09D13B681B78D0
:101090007A6814339B0013445B683A6812695A619A
:1010A0003B68DB78012B0CD13B685B79002B04D0CB
:1010B000FB7D43F02003FB7503E0FB7D43F0100351
:1010C000FB75FB7D43F00403FB75FB7D43F0800360
:1010D000FB753B681B787A6814339B0013445B688C
:1010E0007A691A60FB7F18462037BD4680BD00BF75
:1010F00080B489B000AF786039600023FB770023AB
:10110000BB6100233B610023BB603B685B78012B24
:101110006FD17B689B697B617B691B683B617B69E5
:101120001B69BB603B685B69002B09D13B7A6FF39D
:1011300006033B72BB7A012262F3C403BB7223E055
:101140003B685A693B689B689A420ED93B689A682B
:101150003B685A613B689B68DBB203F07F03DAB2FD
:101160003B7A62F306033B7209E03B685B69DBB2E2
:1011700003F07F03DAB23B7A62F306033B72BB7A79
:10118000012262F3C403BB72BA687B691A617B688F
:10119000DB78012B09D13B681B787A6804339B000C
:1011A00013449B683A6812695A61FB7C43F004035C
:1011B000FB74FB7C43F08003FB743A697B691A6023
:1011C0007B68DB78002B75D13B685B69002B71D0A5
:1011D0003B681B78012202FA03F3BA691343BB612F
:1011E0007B681B697A681269516BBA690A435A6352
:1011F00060E03B681B787A6814339B0013445B689B
:101200001B683B613B681B787A6814339B0013446E
:101210005B681B69BB603B685B69002B0FD13B6857
:101220009B68DBB203F07F03DAB23B7A62F306031A
:101230003B72BB7A012262F3C403BB7212E03B68CB
:101240009A683B685A613B689B68DBB203F07F0396
:10125000DAB23B7A62F306033B72BB7A012262F395
:10126000C403BB723B681B787A6814339B00134439
:101270005B68BA681A617B68DB78012B09D13B682F
:101280001B787A6814339B0013445B683A681269D0
:101290005A61FB7C43F00403FB74FB7C43F0800346
:1012A000FB743B681B787A6814339B0013445B68BB
:1012B0003A691A60FB7F18462437BD465DF8047B07
:1012C000704700BF80B487B000AF786039600023FA
:1012D000FB750023FB603B685B78012B1CD13B68EE
:1012E0001B787A6804339B0013449B683B613B691D
:1012F0001B68FB60FB7BC3F3C013DBB2002B03D086
:10130000FB7B43F04003FB73BB7B43F02003BB73C9
:10131000FA683B691A6011E03B681B787A681433FD
:101320009B0013445B683B613B691B68FB60BB7BB4
:1013300043F02003BB73FA683B691A60FB7D1846D3
:101340001C37BD465DF8047B704700BF80B487B092
:1013500000AF786039600023FB740023FB603B68BA
:101360005B78012B08D13B681B787A6804339B00BB
:1013700013449B687B6107E03B681B787A681433F1
:101380009B0013445B687B617B691B68FB60BB7BD4
:101390006FF34513BB733B68DB78032B03D03B68CB
:1013A000DB78022B03D1FB7B43F01003FB73FA685D
:1013B0007B691A60FB7C18461C37BD465DF8047BD0
:1013C000704700BF80B485B000AF78607B681B6950
:1013D0009B69FB607B681B69DB69FA681340FB60F3
:1013E000FB681B0C18461437BD465DF8047B70473C
:1013F00080B485B000AF78600B46FB70FB787A68EC
:1014000014339B0013445B689B68FB607B681B691B
:101410005B69FA681340FB60FB6818461437BD46E9
:101420005DF8047B704700BF80B485B000AF786082
:101430007B681B699B69FB607B681B69DB69FA68D9
:101440001340FB60FB689BB218461437BD465DF83D
:10145000047B704780B487B000AF786000233B61A5
:10146000FB7C43F0C003FB74BB7C012262F3C4032A
:10147000BB743B7C182262F306033B747B685B6D94
:101480003A691A617B68DB78012B16D10023FB6077
:101490007B685B6D7A6802F5B9625A617B685B6D47
:1014A0001B68FB60FB7B43F08003FB734FF08023E2
:1014B000FB607B685B6DFA681A601C37BD465DF89F
:1014C000047B704780B485B000AF78607B689B7AFE
:1014D000002B1BD07B681B699B68FB603B7BC3F3C5
:1014E0000003DBB2012B11D17B6803F586731B6807
:1014F000BB603B7A6FF341033B723B7A6FF30003AF
:101500003B727B68D3F80C31BA681A601437BD4659
:101510005DF8047B704700BF80B400AFBD465DF846
:10152000047B704780B483B000AF0346FB710C3777
:10153000BD465DF8047B704780B400AFBD465DF8E2
:10154000047B704780B400AFBD465DF8047B7047F4
:1015500080B400AFBD465DF8047B704780B582B0B3
:1015600000AF144B7B60144B3B6007E03B681A1DD7
:101570003A607A68111D796012681A603A680F4BF8
:101580009A42F3D30E480F494FF000028842B8BF89
:1015900040F8042BFFF6FAAFDFF82C00016841F4A5
:1015A0007001016001F074FA00F0EAFB0837BD46F3
:1015B00080BD00BFE45D0008000000205C05002045
:1015C0005C050020B40C002088ED00E080B400AF82
:1015D000FEE700BF80B584B000AF0346FB71FA7927
:1015E000104B53F822301846012100F0A9FFFA7978
:1015F0000D4B33F81230BB6001233B730023BB73E8
:101600000123FB7302237B73FA79084B53F82220E2
:1016100007F108031046194601F04AF91037BD4694
:1016200080BD00BF385D0008305D00081C00002050
:1016300080B483B000AF0346FB71FA79064B53F8D0
:101640002230F979054A32F811201A830C37BD4649
:101650005DF8047B704700BF1C000020305D00086F
:1016600080B483B000AF0346FB71FA79064B53F8A0
:101670002230F979054A32F811205A830C37BD46D9
:101680005DF8047B704700BF1C000020305D00083F
:1016900080B588B000AF02460B46FA71BB710123DA
:1016A0001846012100F04CFF4FF48040012100F06A
:1016B000A1FF00233B770023FB770123BB61FA796D
:1016C000174B53F8222007F118031046194601F072
:1016D000EFF8BB79012B1FD10022002310461946D9
:1016E000FEF752FD01233B6100233B7508237B7508
:1016F0000123BB7507F11003184602F031FE0623E3
:101700003B730F237B730F23BB730123FB7307F121
:101710000C03184602F0B2FE2037BD4680BD00BF64
:101720002C00002080B582B000AF78600B46FB70C3
:10173000786881213F22032302F07EFF786801212F
:101740003F22032302F078FF78680121044A3F23F7
:1017500002F0F8FF002318460837BD4680BD00BFE1
:101760006805002080B582B000AF78600B46FB7042
:101770007868812102F0AEFF7868012102F0AAFFAB
:10178000002318460837BD4680BD00BF80B584B031
:1017900000AF786039600023FB810023BB603B68A9
:1017A0001B7803F06003002B41D0202B78D13B68DD
:1017B0005B78023B092B33D801A252F823F000BF1B
:1017C00015180008F717000821180008211800084C
:1017D0002118000821180008211800082118000805
:1017E00003180008E91700083B685B88DBB21A465B
:1017F0002E4B1A601AE078682C49012203F0CAF8CF
:1018000014E03B685B881B0A9BB2DBB21A46284B8C
:101810001A600BE078682649012203F0BBF805E066
:101820007868396801F016FF02233AE038E03B6837
:101830005B780A2B27D00B2B2BD0062B30D13B68A3
:101840005B881B0A9BB2222B08D13B68DB88172BD5
:1018500028BF1723FB81174BBB600DE03B685B88FB
:101860001B0A9BB2212B07D1134BBB603B68DB8863
:10187000092B28BF0923FB81FB897868B9681A46C0
:1018800003F088F80CE078680C49012203F082F834
:1018900006E03B685B88DBB21A46084B1A6000BF63
:1018A000002318461037BD4680BD00BF60050020EC
:1018B00064050020880000206E0000205C050020E8
:1018C00080B584B000AFF860B9601346FB80FB6858
:1018D00093F81231032B05D1FB88F8688121BA688F
:1018E00002F070FF002318461037BD4680BD00BFD0
:1018F00080B483B000AF03463960FB713B68292296
:101900001A80034B18460C37BD465DF8047B7047C0
:101910005C00002080B582B000AF78600B46FB70A1
:101920007868812102F0FEFF002318460837BD4683
:1019300080BD00BF80B584B000AF78600B46FB70FF
:101940000023FB730AE097F90F3097F90F200B493A
:10195000895C0B4AD154FB7B0133FB7397F90F3041
:101960003F2BF0DD78680121044A3F2302F0EAFEB4
:10197000002318461037BD4680BD00BF6805002013
:101980002806002080B584B000AFF8607A603B6024
:101990000B46FB72F86801F09DF9F86800F01CF83E
:1019A000FB683A68C3F8E025FB68BA69C3F8E42528
:1019B000FB687A68C3F8E825FB7AF868194602F0F4
:1019C000BBFDFB68D3F8E4351B689847F86801F065
:1019D000D9F91037BD4680BD80B483B000AF7860C0
:1019E000002318460C37BD465DF8047B704700BFE6
:1019F00080B584B000AF786007F1080378681946B5
:101A000001F0E2FD3B7A03F01F03012B0AD0022B09
:101A10000FD0002B14D107F108037868194601F0A4
:101A2000FDF916E007F108037868194601F046FA57
:101A30000FE007F108037868194601F073FA08E02F
:101A40003B7A23F07F03DBB27868194602F0F6FE9A
:101A500000BF002318461037BD4680BD80B584B056
:101A600000AF78600B46FB70FB78002B45D17B689C
:101A700003F55C73FB607B6893F81131032B4FD146
:101A8000FB68DA69FB689B689A4221D9FB68DA69CE
:101A9000FB689B68D21AFB68DA617B68DB78012BF4
:101AA00006D1FB68DA68FB689B681A44FB68DA6059
:101AB000FB68DA68FB689968FB68DB69994238BFA4
:101AC0000B469BB2786811461A4602F097FF27E052
:101AD0007B68D3F8E0351B69002B0AD07B6893F84C
:101AE0001231032B05D17B68D3F8E0351B69786888
:101AF0009847786802F096FF12E07B68D3F8E035EB
:101B00009B69002B0CD07B6893F81231032B07D113
:101B10007B68D3F8E0359B69FA7878681146984776
:101B2000002318461037BD4680BD00BF80B584B085
:101B300000AF78600B46FB70FB78002B60D17B68B0
:101B400003F58C73FB607B6893F81131022B6AD12B
:101B5000FB68DA69FB689B689A421CD9FB68DA6902
:101B6000FB689B68D21AFB68DA617B68DB78012B23
:101B700006D1FB68DA68FB689B681A44FB68DA6088
:101B8000FB68DA68FB68DB699BB2786811461A4625
:101B900002F020FF47E0FB681B6AFA689268B3FB1B
:101BA000F2F102FB01F29B1A002B14D1FB681A6AB6
:101BB000FB689B689A420ED3FB681A6AFB685B6AF3
:101BC0009A4208D278680021002202F003FFFB68E5
:101BD00000225A6227E07B68D3F8E035DB68002BEF
:101BE0000AD07B6893F81231032B05D17B68D3F8B8
:101BF000E035DB6878689847786802F02BFF12E0E0
:101C00007B68D3F8E0355B69002B0CD07B6893F8D8
:101C10001231032B07D17B68D3F8E0355B69FA7882
:101C2000786811469847002318461037BD4680BD96
:101C300080B582B000AF7860786800214022002330
:101C400002F0FAFC786880214022002302F0F4FCC4
:101C50007B68012283F812217B68D3F8E4355B6846
:101C60007A68927810469847002318460837BD4690
:101C700080BD00BF80B582B000AF78607B68D3F8CC
:101C8000E4351B6998477B68032283F812210023FF
:101C900018460837BD4680BD80B582B000AF786079
:101CA0007B68042283F812217B68D3F8E435DB6873
:101CB0009847002318460837BD4680BD80B582B0DE
:101CC00000AF78607B68D3F8E035DB69002B05D086
:101CD0007B68D3F8E035DB697868984700231846BD
:101CE0000837BD4680BD00BF80B582B000AF7860C8
:101CF0000B46FB707B68D3F8E0351B68FA78786890
:101D0000114698477B68D3F8E4359B6898470023D1
:101D100018460837BD4680BD80B582B000AF7860F8
:101D20000B46FB707B68D3F8E0355B68FA7878681F
:101D300011469847002318460837BD4680BD00BFAE
:101D400080B582B000AF78607B68D3F8E0351B6A5D
:101D500078689847002318460837BD4680BD00BF05
:101D600080B582B000AF78607B68D3F8E0355B6AFD
:101D700078689847002318460837BD4680BD00BFE5
:101D800090B593B002AF0120FFF724FC0020FFF7CD
:101D900021FC0220FFF71EFC0320FFF71BFC0020A4
:101DA0000021FFF775FC0120FFF742FC4FF6FF70A2
:101DB00000F0BEFA0120FFF753FCC74B0093C74861
:101DC0000121C74AC74BFFF7DDFD00F061FE00F0BF
:101DD0008BFE00F05DFE00F087FE0420012100F084
:101DE000EBFB0820012100F0ABFB0120012100F0FA
:101DF000A7FB1020012100F0A3FB0220012100F02D
:101E0000DBFB0420012100F0D7FB4FF470437B6221
:101E1000012387F82830002387F82A30032387F826
:101E20002930002387F82B3007F12403AE481946E8
:101E300000F03EFD4FF48050012100F0DBFB01205B
:101E4000012100F07DFB1020012100F079FB102022
:101E5000012100F075FB1020012100F071FBA34867
:101E60000521052200F0CEFDA0480621052200F044
:101E7000C9FD9E480721052200F0C4FD022387F812
:101E80002830002387F82A30022387F82B300223DA
:101E900087F8293020237B6207F1240393481946F1
:101EA00000F006FD80237B6207F124038F4819466A
:101EB00000F0FEFC40237B6207F124038B481946A7
:101EC00000F0F6FC8A4802F075F900233B820023FB
:101ED000BB820023FB8200233B834FF400737B8390
:101EE0000823BB830023FB8307233B844FF48273C7
:101EF0007B8207F110037E48194602F095F97C4871
:101F0000012102F0D5F908237B62012387F82830EC
:101F1000002387F82A30022387F8293007F12403A9
:101F20007448194600F0C4FC7248082100F04EFDC8
:101F300001237B62002387F82830002387F82A30AA
:101F4000022387F82930002387F82B3007F1240378
:101F50006848194600F0ACFC02237B6207F12403B9
:101F60006448194600F0A4FC002387F83B30402366
:101F70003B7200237B720723BB720023FB7200239A
:101F80003B7307F10803184600F0E2F940233B7168
:101F900010237B712023BB713B1D184600F074FA9F
:101FA00014237B634FF400537B62022387F82830AD
:101FB000002387F82A30032387F82930002387F885
:101FC0002B3007F124034848194600F071FC4648BD
:101FD0000D21022200F016FD474B40F299225A6073
:101FE000464B1A68464BA3FB02131B0E9BB2013BE8
:101FF0009AB2414B1A80404B00221A813E4B00227C
:102000005A8040483C4902F03DFD3F4B60221A8017
:102010003D4B00229A813C4B01225A803A4B0022D0
:102020009A603848384902F0B7FD3648082102F076
:102030003BFE3648012102F08FFD3248012102F0BB
:102040008BFD002387F833300023FB620023FB6302
:10205000FF2000F06DF92E482921012200F036FA08
:102060002C482B21012200F031FA2B482D2101228E
:1020700000F02CFA264B1B785BB2184603F02AFBC3
:1020800002460B46104619464FF00002234B03F060
:10209000B1FC02460B461046194602F023FE0246EA
:1020A0000B46104619464FF000021D4B03F078FB1B
:1020B00002460B461046194605A3D3E9002303F058
:1020C00099FC02460B46104619462BE0AFF3008000
:1020D0001F85EB51B81E094000000020800600203B
:1020E000D800002030000020000C02400000024018
:1020F00000300140001002401C06002018010020A2
:1021000029D94266000800406C0600200004004007
:10211000700C0020670600206806002000004E407A
:10212000008066404FF00002734B03F085F90246D1
:102130000B461046194603F0CDFD02466F4B1A6060
:102140006F4B1B785BB2184603F0C4FA02460B468D
:10215000104619464FF000026A4B03F04BFC024652
:102160000B461046194602F0BDFD02460B461046CE
:1021700019464FF00002644B03F012FB02460B4677
:10218000104619465AA3D3E9002303F033FC024654
:102190000B46104619464FF00002574B03F04CF91E
:1021A00002460B461046194603F094FD0246574B73
:1021B0001A60574B1B785BB2184603F08BFA024645
:1021C0000B46104619464FF000024E4B03F012FC2E
:1021D00002460B461046194602F084FD02460B46A5
:1021E000104619464FF00002474B03F0D9FA024659
:1021F0000B46104619463EA3D3E9002303F0FAFB31
:1022000002460B46104619464FF000023A4B03F0C7
:1022100013F902460B461046194603F05BFD0246D1
:102220003C4B1A60354B1B68DAB23B4B1A70374B8C
:102230001B68DAB2384B5A70384837494022FFF7EA
:102240003FFBFF2000F074F8354B1B7803F00103CF
:10225000002B03D00120FFF7EBF902E00120FFF78C
:10226000FFF92F4B1B7803F00203002B03D0002053
:10227000FFF7DEF902E00020FFF7F2F9284B1B78A8
:1022800003F00403002B03D00220FFF7D1F902E092
:102290000220FFF7E5F9224B1B7803F00803002B1F
:1022A00003D00320FFF7C4F902E00320FFF7D8F9B9
:1022B000FB6A022B1ADDFB6B0133FB63194CFB6BD2
:1022C000F933194A83FB02015A181112DA178A1AD4
:1022D00040F24D1101FB02F29A1AC2F5A6730133C6
:1022E000A3634FF6FF7000F023F8B1E6B0E600BF3D
:1022F0001F85EB51B81E094000805640B4050020F0
:102300006706002000004E4000806640B8050020AF
:1023100068060020BC050020DC05002080060020A7
:102320002806002000080040B107CEC4AFF30080AB
:1023300080B483B000AF78607B68002B02D07B68EC
:10234000013B7B600C37BD465DF8047B704700BFE6
:1023500080B584B000AF78600023FB737B685A7847
:102360007B681B781343DAB27B68DB781343DAB2FD
:102370007B681B791343DAB27B689B781343DBB22B
:10238000FB7307F10F0318462021012200F004F827
:102390001037BD4680BD00BF80B582B000AF786009
:1023A00013460A46FA703B803B88012B03D9FB7821
:1023B00043F04003FB700F48082100F015FBFB7849
:1023C000184600F019F80AE07B681B78184600F000
:1023D00013F83B88013B3B807B6801337B603B8883
:1023E000002BF1D10348082100F0F0FA0837BD4670
:1023F00080BD00BF0010024080B582B000AF034630
:10240000FB711F4B4FF480521A600BE01C4B1B6892
:10241000591E1B4A1160002B04D100F08DF80346B1
:10242000DBB229E01748022101F07EFF0346002BB2
:10243000ECD0FB799BB21348194601F067FF104BB3
:102440004FF480521A600BE00D4B1B68591E0C4A6A
:102450001160002B04D100F06FF80346DBB20BE0F3
:102460000848012101F060FF0346002BECD005482D
:1024700001F03EFF0346DBB218460837BD4680BD7B
:10248000D00000200030014080B584B000AF7860FB
:102490000023FB7307F10F0318463821012200F0D7
:1024A00015F87B681A787B685B781343DAB27B682F
:1024B0009B781343DBB2FB7307F10F0318463821F7
:1024C0000122FFF769FF1037BD4680BD80B582B09D
:1024D00000AF786013460A46FA703B803B88012BB8
:1024E00004D9FB7863F03F03FB7003E0FB7863F0F3
:1024F0007F03FB700F48082100F076FAFB7818463E
:10250000FFF77AFF0CE00020FFF776FF03461A463C
:102510007B681A703B88013B3B807B6801337B60A2
:102520003B88002BEFD10348082100F04FFA083711
:10253000BD4680BD0010024080B400AFFEE700BF82
:1025400080B483B000AF78600B46FB70FB78002B43
:1025500006D0094B084A116B7A680A431A6306E0F1
:10256000054B054A116B7A68D2430A401A630C374F
:10257000BD465DF8047B70470038024080B483B0EC
:1025800000AF78600B46FB70FB78002B06D0094B40
:10259000084A516B7A680A435A6306E0054B054ABC
:1025A000516B7A68D2430A405A630C37BD465DF8D6
:1025B000047B70470038024080B483B000AF78607D
:1025C0000B46FB70FB78002B06D0094B084A116CB8
:1025D0007A680A431A6406E0054B054A116C7A686A
:1025E000D2430A401A640C37BD465DF8047B70473D
:1025F0000038024080B483B000AF78600B46FB70B7
:10260000FB78002B06D0094B084A516C7A680A43C4
:102610005A6406E0054B054A516C7A68D2430A4079
:102620005A640C37BD465DF8047B704700380240A1
:1026300080B483B000AF78600B46FB70FB78002B52
:1026400006D0094B084A116A7A680A431A6206E002
:10265000054B054A116A7A68D2430A401A620C3760
:10266000BD465DF8047B70470038024080B483B0FB
:1026700000AF78600B46FB70FB78002B06D0094B4F
:10268000084A516A7A680A435A6206E0054B054ACD
:10269000516A7A68D2430A405A620C37BD465DF8E7
:1026A000047B70470038024080B400AFBD465DF83F
:1026B000047B704780B400AFFEE700BF80B400AF7A
:1026C000FEE700BF80B400AFFEE700BF80B400AFFC
:1026D000FEE700BF80B400AFBD465DF8047B7047E5
:1026E00080B400AFBD465DF8047B704780B400AF96
:1026F000BD465DF8047B704780B400AFBD465DF811
:10270000047B704780B500AF094B9B7A002B0AD041
:10271000084B084A126822F006021A6000F0B8F965
:102720000348FEF7CFFE4FF4802001F087FE80BD06
:102730008006002010ED00E080B500AF014801F0F8
:1027400003F880BD8006002080B483B000AF03464C
:102750003960FB713B6812221A80034B18460C3714
:10276000BD465DF8047B7047F400002080B483B060
:1027700000AF03463960FB713B6804221A80034BAB
:1027800018460C37BD465DF8047B704714010020E5
:1027900080B582B000AF03463960FB71FB79002B36
:1027A00005D1084808493A6800F078FF04E0074876
:1027B00005493A6800F072FF034B18460837BD46DA
:1027C00080BD00BF605D0008740C0020745D0008CF
:1027D00080B582B000AF03463960FB7104480549FB
:1027E0003A6800F05BFF034B18460837BD4680BDD2
:1027F000885D0008740C002080B582B000AF0346ED
:102800003960FB71FB79002B05D1084808493A680B
:1028100000F044FF04E0074805493A6800F03EFF35
:10282000034B18460837BD4680BD00BF9C5D0008BD
:10283000740C0020AC5D000880B582B000AF034688
:102840003960FB71FB79002B05D1084808493A68CB
:1028500000F024FF04E0054805493A6800F01EFF37
:10286000034B18460837BD4680BD00BFBC5D00085D
:10287000740C002080B582B000AF03463960FB7154
:10288000FB79002B05D1084808493A6800F006FF9B
:1028900004E0054805493A6800F000FF034B18467C
:1028A0000837BD4680BD00BFC85D0008740C00201D
:1028B00080B487B000AF7860396000237B6100236B
:1028C0003B610023FB6000237B6176E07B69012292
:1028D00002FA03F33B613B681A683B691340FB60F3
:1028E000FA683B699A4265D17B681A687B695B002C
:1028F000032101FA03F3DB431A407B681A607B680B
:102900001A683B681B7919467B695B0001FA03F37F
:102910001A437B681A603B681B79012B03D03B6824
:102920001B79022B2ED17B689A687B695B0003219F
:1029300001FA03F3DB431A407B689A607B689A686C
:102940003B685B7919467B695B0001FA03F31A4324
:102950007B689A607B685A687B699BB2012101FAA7
:1029600003F3DB431A407B685A607B685A683B6814
:102970009B7919467B699BB201FA03F39BB21A4318
:102980007B685A607B68DA687B699BB25B000321D5
:1029900001FA03F3DB431A407B68DA607B68DA688C
:1029A0003B68DB7919467B695B0001FA03F31A4344
:1029B0007B68DA607B6901337B617B690F2B85D98A
:1029C0001C37BD465DF8047B704700BF80B483B000
:1029D00000AF78600B467B807B687A881A830C375F
:1029E000BD465DF8047B704780B483B000AF78606B
:1029F0000B467B807B687A885A830C37BD465DF82E
:102A0000047B704780B485B000AF786013460A46F7
:102A10007A807B700023FB600023BB607A787B8820
:102A200003F007039B0002FA03F3FB607B88DB08DB
:102A30009BB21A467B88DB089BB219467B6808313B
:102A400053F821107B8803F007039B000F2000FA46
:102A500003F3DB4319407B68083243F822107B887C
:102A6000DB089BB21A467B68083253F82220FB68C9
:102A70001343BB607B88DB089BB21A467B68083235
:102A8000B96843F822101437BD465DF8047B7047DF
:102A900080B500AF114B114A126842F001021A6072
:102AA0000E4B00229A600D4A0C4B1B6823F0847376
:102AB00023F480331360094B094A5A60074B074AD5
:102AC000126822F480221A60044B0022DA6000F0BF
:102AD00087F8044B4FF000629A6080BD00380240D6
:102AE0001030002400ED00E080B487B000AF002378
:102AF0003B6100237B610223FB600023BB60022358
:102B00007B60324B9B6803F00C033B613B69042BF9
:102B100007D0082B09D0002B3FD12D4B2D4A1A602E
:102B20003FE02B4B2C4A1A603BE0284B5B6803F4D8
:102B300080039B0DBB60254B5B6803F03F037B600C
:102B4000BB68002B0DD0244A7B68B2FBF3F21F4B0D
:102B5000596847F6C0730B409B0903FB02F37B6186
:102B60000CE01C4A7B68B2FBF3F2184B596847F63D
:102B7000C0730B409B0903FB02F37B61134B5B6843
:102B800003F440331B0C01335B00FB607A69FB6884
:102B9000B2FBF3F20E4B1A6003E00D4B0D4A1A60C4
:102BA00000BF0A4B9B6803F0F0031B090B4AD35C80
:102BB000DBB23B61064B1A683B69DA40044B1A6092
:102BC0001C37BD465DF8047B704700BF00380240EB
:102BD000180100200024F40040787D011C01002031
:102BE00080B483B000AF00237B6000233B60354B93
:102BF000344A126842F480321A60324B1B6803F484
:102C000000333B607B6801337B603B68002B03D162
:102C10007B68B3F5A06FF0D12A4B1B6803F4003337
:102C2000002B02D001233B6001E000233B603B68A6
:102C3000012B42D1234B234A126C42F080521A647A
:102C4000214B214A126842F480421A601D4B1D4AF2
:102C500092689A601B4B1B4A926842F400429A6049
:102C6000184B184A926842F4A0529A60154B174AC2
:102C70005A60144B134A126842F080721A6000BF07
:102C8000104B1B6803F00073002BF9D0104B40F27F
:102C900005621A600B4B0B4A926822F003029A609D
:102CA000084B084A926842F002029A6000BF054B46
:102CB0009B6803F00C03082BF9D10C37BD465DF877
:102CC000047B704700380240007000400854400701
:102CD000003C024080B584B000AF78600120012143
:102CE000FFF72EFC4FF4D853BB6003237B73022302
:102CF0003B730023BB730023FB7307F108032048D9
:102D00001946FFF7D5FD1E4808210A22FFF77AFE73
:102D10001B4809210A22FFF775FE19480B210A22D8
:102D2000FFF770FE16480C210A22FFF76BFE4FF4E6
:102D30008063BB600123BB730123FB7303237B739D
:102D400007F108030E481946FFF7B2FD0C480A21A7
:102D50000A22FFF757FE4FF480400121FFF74AFC9B
:102D600080200121FFF70AFC4FF080500121FFF77E
:102D70005FFC00200021FEF78BFC1037BD4680BDB4
:102D80000000024080B584B000AF78604FF4C060AE
:102D900001F062FB43233B7301237B730323BB736B
:102DA0000123FB7307F10C03184601F067FB103792
:102DB000BD4680BD80B485B000AF78600023FB6065
:102DC0007A6813461B019B1ADB001A460A4BA3FBC9
:102DD0000213D21A520813449B08BB60FB680133EC
:102DE000FB60FA68BB689A4200D900E0F6E7143746
:102DF000BD465DF8047B70472549922480B582B0BA
:102E000000AF78607B684FF47A7202FB03F31846D8
:102E1000FFF7D0FF0837BD4680BD00BF80B584B046
:102E200000AF786039600023FB733B685B78092B47
:102E300039D801A252F823F0892E00089D2E0008EF
:102E4000A72E0008932E0008A72E00086B2E00085E
:102E5000612E0008A72E00087F2E0008752E00089E
:102E60007868396800F036F922E07868396800F04F
:102E70000DFA1DE07868396800F046FA18E07868C5
:102E8000396800F0BBFA13E07868396800F0E6FAB8
:102E90000EE07868396800F009FB09E07868396865
:102EA00000F06AFB04E07868396800F0D3FB00BFEB
:102EB000FB7B18461037BD4680BD00BF80B584B08F
:102EC00000AF786039600023FB737B6893F81231A0
:102ED000032B1CD13B689B88DBB2012B11D87B688C
:102EE000D3F8E0359B687868396898473B68DB8899
:102EF000002B0BD1FB7B002B08D1786801F092FDF1
:102F00000AE07868396800F0A5FB05E004E078681D
:102F1000396800F09FFB00BFFB7B18461037BD46A9
:102F200080BD00BF80B584B000AF786039600023F9
:102F3000FB733B689B88BB733B685B78012B39D084
:102F4000032B02D0002B6BD0BCE07B6893F81231CE
:102F5000022B02D0032B0DD026E0BB7B002B08D028
:102F6000BB7B802B05D0BB7B7868194601F066FCE3
:102F70001FE01EE03B685B88002B0AD1BB7B002B67
:102F800007D0BB7B802B04D0BB7B7868194601F04F
:102F900055FC7B68D3F8E0359B68786839689847BA
:102FA000786801F03FFD04E07868396800F052FB72
:102FB00000BF87E07B6893F81231022B02D0032B0D
:102FC0000DD027E0BB7B002B08D0BB7B802B05D02E
:102FD000BB7B7868194601F031FC20E01FE03B68BC
:102FE0005B88002B15D1BB7B002B0ED0BB7B802BCD
:102FF0000BD0BB7B7868194601F05AFC7B68D3F88C
:10300000E0359B68786839689847786801F00AFD70
:1030100005E004E07868396800F01CFB00BF51E06F
:103020007B6893F81231022B02D0032B0DD043E0C2
:10303000BB7B002B08D0BB7B802B05D0BB7B78688B
:10304000194601F0FBFB3CE03BE0BB7B5BB2002B95
:1030500015DABB7B03F07F02796813469B001344AB
:10306000DB000B4403F58C739B78002B03D0184BCB
:1030700001221A601AE0164B00221A6016E0BB7B90
:103080005BB2002B12DBBA7B796813469B001344BA
:10309000DB000B4403F55C739B78002B03D00C4BD7
:1030A00001221A6002E00A4B00221A60786808497F
:1030B000022201F06FFC04E07868396800F0CAFA77
:1030C00000BF00BFFB7B18461037BD4680BD00BF68
:1030D000CC05002080B584B000AF786039603B68D3
:1030E0005B881B0A9BB2013B062B00F2B18001A258
:1030F00052F823F011310008433100086D31000807
:1031000051320008513200083D32000847320008B1
:103110007B68D3F8E8351B687A68917807F10A0272
:10312000084611469847F8603B68DB88402B04D07E
:103130007B6893F81231012B02D108237B818CE04C
:103140008BE07B68D3F8E0359B6A7A68917807F169
:103150000A02084611469847F860FB6801330222CC
:103160001A707B68FA68C3F8EC2576E03B685B88E8
:10317000DBB2052B5CD801A252F823F09531000890
:10318000AF310008C9310008E3310008FD31000803
:10319000173200087B68D3F8E8355B687A68917865
:1031A00007F10A02084611469847F86045E07B6837
:1031B000D3F8E8359B687A68917807F10A020846E7
:1031C00011469847F86038E07B68D3F8E835DB684B
:1031D0007A68917807F10A02084611469847F86024
:1031E0002BE07B68D3F8E8351B697A68917807F1A2
:1031F0000A02084611469847F8601EE07B68D3F83B
:10320000E8355B697A68917807F10A020846114649
:103210009847F86011E07B68D3F8E8359B697A68D5
:10322000917807F10A02084611469847F86004E0D1
:103230007868396800F00EFA24E00EE078683968A2
:1032400000F008FA1EE07868396800F003FA19E027
:103250007868396800F0FEF914E07B89002B11D002
:103260003B68DB88002B0DD03B68DA887B899A426B
:1032700038BF13469BB27B817B897868F9681A4610
:1032800001F088FB1037BD4680BD00BF80B584B01B
:1032900000AF786039603B689B88002B2DD13B687C
:1032A000DB88002B29D13B685B88DBB203F07F030E
:1032B000FB737B6893F81231032B04D1786839686B
:1032C00000F0C8F918E07B68FA7B83F81321FB7BD8
:1032D0007868194601F040FB786801F0A3FBFB7B9E
:1032E000002B04D07B68022283F8122104E07B6863
:1032F000012283F8122104E003E07868396800F0C5
:10330000A9F91037BD4680BD80B582B000AF7860A6
:1033100039603B685B88DAB2374B1A70364B1B78E2
:10332000012B04D97868396800F094F960E07B6873
:1033300093F81231022B02D0032B1BD053E02E4BFB
:103340001B78002B12D02C4B1A787B6883F8102145
:103350007B68032283F81221274B1B787868194673
:10336000FEF7C2FC786801F05DFB41E0786801F08F
:1033700059FB3DE0204B1B78002B12D17B680222C9
:1033800083F812211C4B1A787B6883F810211A4BA2
:103390001B7878681946FEF7BFFC786801F042FB9D
:1033A00020E07B6893F81021134B1B789A4215D0CC
:1033B0007B6893F8103178681946FEF7ADFC0E4B28
:1033C0001A787B6883F810210B4B1B7878681946B4
:1033D000FEF78AFC786801F025FB03E0786801F0CD
:1033E00021FB05E004E07868396800F033F900BF9C
:1033F0000837BD4680BD00BFD805002080B582B02B
:1034000000AF786039603B68DB88012B04D07868B6
:10341000396800F01FF91BE07B6893F81231022B2A
:1034200002D0032B06D00EE078680B49012201F090
:10343000B1FA0DE07B6803F58873786819460122BC
:1034400001F0A8FA04E07868396800F003F900BFD9
:103450000837BD4680BD00BFD005002080B582B0D2
:1034600000AF786039607B6893F81231023B012B22
:1034700011D87B68D3F81431002B03D00A4B0322F8
:103480001A6002E0084B01221A607868064901229E
:1034900001F080FA04E07868396800F0DBF800BFDA
:1034A0000837BD4680BD00BFD405002080B584B07C
:1034B00000AF786039600023FB733B685B88012BA9
:1034C0000ED17B680122C3F814217B68D3F8E03564
:1034D0009B68786839689847786801F0A3FA48E0F3
:1034E0003B685B88022B44D13B689B88DBB2002B96
:1034F0003FD17B681B695B68BB603B689B881B0A8C
:103500009BB2FB73FB7B013B042B2BD801A252F82F
:1035100023F000BF29350008353500084135000883
:103520004D350008593500083B7A012262F3061335
:103530003B7217E03B7A022262F306133B7211E002
:103540003B7A032262F306133B720BE03B7A0422C0
:1035500062F306133B7205E03B7A052262F3061321
:103560003B7200BF7B681B69BA685A60786801F0DB
:1035700059FA1037BD4680BD80B582B000AF786083
:1035800039607B6893F81231023B012B13D83B68FA
:103590005B88012B0ED17B680022C3F814217B6865
:1035A000D3F8E0359B68786839689847786801F007
:1035B00039FA05E004E07868396800F04BF800BF9C
:1035C0000837BD4680BD00BF80B483B000AF7860CF
:1035D00039607B6893F8C8253B681A707B6893F85C
:1035E000C9253B685A707B6893F8CA351A467B68D0
:1035F00093F8CB351B029BB213449AB23B685A80B6
:103600007B6893F8CC351A467B6893F8CD351B025E
:103610009BB213449AB23B689A807B6893F8CE358C
:103620001A467B6893F8CF351B029BB213449AB2BB
:103630003B68DA803B68DB881A467B68C3F83C212C
:103640007B68012283F811210C37BD465DF8047BAD
:10365000704700BF80B582B000AF786039603B68CA
:103660001B78DBB25BB2002B04DA7868802101F0B2
:10367000E5F80CE03B68DB88002B04D178688021FA
:1036800001F0DCF803E07868002101F0D7F87868F1
:10369000FDF7E0FE0837BD4680BD00BF80B586B0AF
:1036A00000AFF860B9607A600023FB75FB68002BFF
:1036B0002FD0F86800F030F8034601339BB25B006E
:1036C0009AB27B681A80FB7D5A1CFA75BA6813445B
:1036D0007A681288D2B21A70FB7D5A1CFA75BA68E1
:1036E000134403221A7010E0FB7D5A1CFA75BA6865
:1036F0001A44FB68591CF9601B781370FB7D5A1C37
:10370000FA75BA68134400221A70FB681B78002B04
:10371000EAD11837BD4680BD80B485B000AF78606F
:103720000023FB7305E0FB7B0133FB737B680133F4
:103730007B607B681B78002BF5D1FB7B1846143728
:10374000BD465DF8047B704780B586B000AF7860F9
:1037500000237B617868FDF7A7F80346002B00F093
:103760009C807868FDF7B2F803463B613B69002B0B
:1037700001D1002392E0BB7CC3F3C003DBB2002B7A
:1037800006D0786800F012FA03467A6913437B6129
:10379000BB7CC3F38003DBB2002B06D0786800F05B
:1037A0000FF903467A6913437B613B7CC3F3400303
:1037B000DBB2002B09D00023FB603B7B43F002030C
:1037C0003B737B68DB68FA685A61FB7CC3F3C01308
:1037D000DBB2002B06D0786800F064F803467A6903
:1037E00013437B617B7CC3F3C003DBB2002B06D0A9
:1037F000786800F097F803467A6913437B613B7C55
:10380000C3F3C003DBB2002B06D0786800F08AFA5D
:1038100003467A6913437B613B7CC3F30013DBB23D
:10382000002B06D0786800F097FA03467A691343B4
:103830007B617B7CC3F30013DBB2002B06D078687E
:1038400000F07EFB03467A6913437B617B7CC3F304
:103850004013DBB2002B06D0786800F013FC03465F
:103860007A6913437B61BB7CC3F30013DBB2002B8B
:1038700006D0786800F042FC03467A6913437B6106
:10388000BB7CC3F34013DBB2002B06D0786800F09A
:103890004FFC03467A6913437B617B6918461837EE
:1038A000BD4680BD80B586B000AF78607B689B7AEE
:1038B000002B11D07B6803F586731B68FB603B7B94
:1038C0006FF341033B733B7B6FF300033B737B68F8
:1038D000D3F80C31FA681A6000233B613B7C43F05B
:1038E00001033B747B681B697A68126951683A6905
:1038F000D2430A405A600A4B1B689B697868984714
:1039000000237B61FB7D43F08003FB757B68DB68F4
:103910007A695A61012318461837BD4680BD00BF39
:10392000CC00002080B586B000AF7860224B1B68C9
:103930005B69786898477B681B699B68FB6000231C
:103940007B617B7D43F008037B757B68DB687A696C
:103950005A617B689B7A002B29D03B7BC3F3000321
:10396000DBB2012B23D100233B613B7C43F00103FD
:103970003B747B68D3F80C317A68D2F80C2111685B
:103980003A690A431A603B7C43F002033B747B684C
:10399000D3F80C317A68D2F80C2111683A690A43DD
:1039A0001A60064B054A126942F006021A610123A9
:1039B00018461837BD4680BDCC00002000ED00E061
:1039C00080B586B000AF786000233B610023BB6008
:1039D0007868FDF729FD7861DCE07B6903F001037D
:1039E000002B00F0D1803B69DBB27868194600F00B
:1039F000B9FB0346BB603B7AC3F30003DBB2002B89
:103A000032D03B69012202FA03F3FB607B681B6939
:103A10007A681269516BFA68D2430A405A630023EC
:103A2000BB603B7A43F001033B727A683B69043325
:103A30009B0013449B68BA689A605B4B1B685B6889
:103A40003A69D2B27868114698477B68DB78012BD7
:103A50000AD13B69002B07D17B6893F81131042B05
:103A600002D17868FDF7F6FC3B7AC3F38003DBB242
:103A7000002B0DD00023BB603B7A43F004033B7264
:103A80007A683B6904339B0013449B68BA689A6068
:103A90003B7AC3F3C003DBB2002B0DD00023BB6025
:103AA0003B7A43F008033B727A683B6904339B001E
:103AB00013449B68BA689A603B7AC3F30013DBB285
:103AC000002B0DD00023BB603B7A43F010033B7208
:103AD0007A683B6904339B0013449B68BA689A6018
:103AE0003B7AC3F34013DBB2002B0DD00023BB6045
:103AF0003B7A43F020033B727A683B6904339B00B6
:103B000013449B68BA689A603B7AC3F38013DBB2B4
:103B1000002B0DD00023BB603B7A43F040033B7287
:103B20007A683B6904339B0013449B68BA689A60C7
:103B30003B7AC3F34003DBB2002B0DD00023BB6004
:103B40003B7A43F002033B727A683B6904339B0083
:103B500013449B68BA689A603B7AC3F3C013DBB224
:103B6000002B11D07868396900F078F90023BB6028
:103B70003B7A43F080033B727A683B6904339B00D5
:103B800013449B68BA689A603B6901333B617B6967
:103B90005B087B617B69002B7FF41FAF0123184614
:103BA0001837BD4680BD00BFCC00002080B586B070
:103BB00000AF786000233B610023FB607868FDF76D
:103BC00001FC7861A3E07B6903F00103002B00F0A6
:103BD00098803B69DBB278681946FDF709FC03461B
:103BE000FB603B7BC3F30003DBB2002B48D0002318
:103BF000FB603B7B43F001033B737A683B69143302
:103C00009B0013445B68FA689A607B68DB78012B41
:103C10001FD17A683B6914339B0013445B681B69AE
:103C2000BB6079683A6913469B001344DB000B4480
:103C300003F55E731A68BB68C3F31203D11A786880
:103C40003A6913469B001344DB00034403F5627397
:103C50001960334B1B681B683A69D2B27868114609
:103C600098477B68DB78012B0AD13B69002B07D191
:103C70007B6893F81131052B02D17868FDF7EAFBD8
:103C80003B7BC3F34003DBB2002B0DD00023FB6072
:103C90003B7B43F002033B737A683B6914339B0020
:103CA00013445B68FA689A603B7BC3F38003DBB222
:103CB000002B0DD00023FB603B7B43F004033B73E0
:103CC0007A683B6914339B0013445B68FA689A6016
:103CD0003B7BC3F3C003DBB2002B12D0104B1B683D
:103CE0009B68786898470023FB603B7B43F00803A0
:103CF0003B737A683B6914339B0013445B68FA6832
:103D00009A603B6901333B617B695B087B617B693E
:103D1000002B7FF458AF012318461837BD4680BDED
:103D2000CC00002080B584B000AF7860094B1B68E0
:103D3000DB68786898470023FB603B7B43F008030F
:103D40003B737B68DB68FA685A61012318461037B9
:103D5000BD4680BDCC00002080B586B000AF786045
:103D600000233B613B7C43F010033B747B68DB68C2
:103D70007A68D26891693A69D2430A409A617B684D
:103D8000DB681B6AFB603B7BC3F30303DBB21A46B1
:103D900013469B001344DB0003F55C737A681344FD
:103DA0007B61BB7BC3F34303DBB2013B052B46D8EE
:103DB00001A252F823F000BF3F3E0008D13D0008A9
:103DC0003F3E00083F3E00083F3E00081B3E000803
:103DD000BB89C3F30A139BB2002B1DD07B69DA6841
:103DE000BB89C3F30A139BB2786811461A46FCF7E5
:103DF000A9FA7B69DA68BB89C3F30A139BB21A4438
:103E00007B69DA607B699A69BB89C3F30A139BB249
:103E10001A447B699A6113E012E07B6803F5B96389
:103E2000786819460822FCF78DFA7B699A69BB8984
:103E3000C3F30A139BB21A447B699A6100E000BF86
:103E40007B68DB687A68D26891693A690A439A614B
:103E5000012318461837BD4680BD00BF80B586B027
:103E600000AF7860396000237B610023BB603A6853
:103E700013469B001344DB0003F58C737A681344EC
:103E8000FB60FB685A69FB689B69D31A7B61FB681E
:103E90009A687B699A4202D2FB689B687B617B6966
:103EA00003339B083B617A683B6804339B001344EF
:103EB0009B689B69BB602EE0FB685A69FB689B6945
:103EC000D31A7B61FB689A687B699A4202D2FB68CD
:103ED0009B687B617B6903339B083B61FB68D96806
:103EE0003B68DAB27B699BB27868FCF7F3F9FB6850
:103EF000DA687B691A44FB68DA60FB689A697B6957
:103F00001A44FB689A617A683B6804339B00134447
:103F10009B689B69BB603B891A463B699A4209D9F9
:103F2000FB689A69FB685B699A4203D2FB685B692C
:103F3000002BC1D1012318461837BD4680BD00BFF4
:103F400080B58AB000AF786000233B6100233B62FC
:103F50000023FB610023BB6100237B610023FB6026
:103F60003B7C43F001033B747B681B697A681269F0
:103F700051683A69D2430A405A6078680021FCF7D8
:103F8000EDFB00237B6212E07A687B6A04339B00BE
:103F900013449B68FF229A607A687B6A14339B0003
:103FA00013445B68FF229A607B6A01337B627B6803
:103FB0005B781A467B6A9A42E6D87B681B694FF0A9
:103FC000FF329A613B8C012262F30F033B847B8CAE
:103FD000012262F30F037B847B681B693A6ADA6112
:103FE0003B7F43F008033B773B7F43F001033B7784
:103FF0003B7F43F004033B773B7F43F002033B7777
:104000007B681B69FA695A613B7E43F001033B768A
:104010003B7E43F008033B763B7E43F002033B7656
:104020003B7E43F004033B763B7E43F020033B762C
:104030007B681B69BA691A617B681B691B687B61B5
:10404000BB8A6FF30A13BB827B681B697A691A60AB
:104050007868FDF7FFF90023FB607B7B43F01003DA
:104060007B737B68DB68FA685A61054B1B681B69C8
:1040700078689847012318462837BD4680BD00BFA1
:10408000CC00002080B584B000AF78607868FCF781
:10409000FFFD7B68DB68DB68BB607868FCF7D4FDFC
:1040A0000346032B0CD17B6800229A707B684FF487
:1040B00000729A807B7A092262F385037B720AE0A0
:1040C0007B6801229A707B6840229A807B7A052265
:1040D00062F385037B727B68DB68BA68DA60002371
:1040E000FB607B7B43F020037B737B68DB68FA68B3
:1040F0005A61012318461037BD4680BD80B584B093
:1041000000AF78600023FB60084B1B68DB697868B0
:104110009847BB7B43F01003BB737B68DB68FA688E
:104120005A61012318461037BD4680BDCC000020DF
:1041300080B584B000AF78600023FB60084B1B683B
:104140001B6A78689847BB7B43F02003BB737B688E
:10415000DB68FA685A61012318461037BD4680BDF6
:10416000CC00002080B487B000AF78600B46FB70B5
:104170007B681B691B697B617B681B695B6B3B61AF
:10418000FB783A6922FA03F3DB01DBB27A69134365
:104190007B61FB787A6804339B0013449B689A68C0
:1041A0007B691340FB60FB6818461C37BD465DF811
:1041B000047B704780B582B000AF78607A68174B97
:1041C0009A420AD14FF480500121FEF74FFA4FF482
:1041D00080500021FEF74AFA1CE07A68104B9A42A0
:1041E0000AD14FF480400121FEF722FA4FF48040BB
:1041F0000021FEF71DFA0DE07A680A4B9A4209D1B8
:104200004FF400400121FEF713FA4FF40040002163
:10421000FEF70EFA0837BD4680BD00BF00300140F2
:1042200000380040003C004080B485B000AF7860AA
:1042300039600023FB817B681B88FB81FB8903F4C9
:104240004153FB813B681A883B685B8813439AB2F1
:104250003B689B8813439AB23B68DB8813439AB24E
:104260003B681B8913439AB23B685B8913439AB23C
:104270003B689B8913439AB23B68DB8913439AB22C
:10428000FB891343FB817B68FA891A807B689B8BCF
:104290009BB223F400639AB27B689A833B681A8AC4
:1042A0007B681A821437BD465DF8047B704700BFF7
:1042B00080B483B000AF78600B46FB70FB78002BB6
:1042C00008D07B681B889BB243F040039AB27B689E
:1042D0001A8007E07B681B889BB223F040039AB2E8
:1042E0007B681A800C37BD465DF8047B704700BFC1
:1042F00080B483B000AF78607B689B899BB218461E
:104300000C37BD465DF8047B704700BF80B483B0B6
:1043100000AF78600B467B807B687A889A810C3787
:10432000BD465DF8047B704780B485B000AF78600F
:104330000B467B800023FB737B681B899AB27B88CA
:1043400013409BB2002B02D00123FB7301E000233A
:10435000FB73FB7B18461437BD465DF8047B704742
:1043600080B485B000AF78600023FB60324BFB6007
:104370007B689B79002B4DD02F4B2F4A11687A68B0
:104380001268D2430A401A602B4B2B4A51687A6854
:104390001268D2430A405A607B681B79FA6813445A
:1043A000FB60FB68FA6811687A6812680A431A6051
:1043B000214B214A91687A681268D2430A409A6078
:1043C0001D4B1D4AD1687A681268D2430A40DA60F0
:1043D0007B685B79102B0ED1174B174A91687A686E
:1043E00012680A439A60144B134AD1687A681268BB
:1043F0000A43DA601BE0104BFB607B685B79FA686C
:104400001344FB60FB68FA6811687A6812680A4313
:104410001A600CE07B681B79FA681344FB60FB6848
:10442000FA6811687A681268D2430A401A60143731
:10443000BD465DF8047B7047003C014080B483B00A
:1044400000AF7860034B7A685A610C37BD465DF85F
:10445000047B7047003C014080B483B000AF7860BB
:10446000054A7B6843F0BF6343F40033D3600C37E5
:10447000BD465DF8047B704700ED00E080B485B078
:1044800000AF78600023FB730023BB730F237B73A3
:104490007B68DB78002B37D0254BDB68DB4303F4EC
:1044A000E0631B0AFB73FB7BC3F10403BB737A7BE2
:1044B000FB7B42FA03F37B737B685B781A46BB7B1A
:1044C00002FA03F3FB737B689A787B7B1340DAB2C2
:1044D000FB7B1343FB73FB7B1B01FB73154A7B6860
:1044E0001B781344FA7B83F80023124B7A68127806
:1044F0005209D2B27968097801F01F01012000FA4F
:1045000001F143F822100EE00A4B7A681278520942
:10451000D2B27968097801F01F01012000FA01F197
:10452000203243F822101437BD465DF8047B7047F3
:1045300000ED00E000E100E080B584B000AF7860FD
:104540000B46FB70FB7878681946FBF727FF7B6802
:10455000012283F812217B68002283F813210023B3
:10456000FB6023E0FA6813469B001344DB0003F56D
:104570008C737A681344BB60BB6801225A70FB6875
:10458000DAB2BB681A70FB689AB2BB68DA80BB68A3
:104590000022DA70BB6840229A60BB680022DA60B1
:1045A000BB6800225A61FB680133FB607B685B7863
:1045B0001A46FB689A42D5D80023FB6023E0FA68CC
:1045C00013469B001344DB0003F55C737A681344C5
:1045D000BB60BB6800225A70FB68DAB2BB681A7015
:1045E000FB689AB2BB68DA80BB680022DA70BB68ED
:1045F00040229A60BB680022DA60BB6800225A61E0
:10460000FB680133FB607B685B781A46FB689A4263
:10461000D5D87868FCF786F87868FBF779FF786872
:104620000021FCF701F97868FCF784F97868FCF759
:104630005DF81037BD4680BD80B584B000AF7860AE
:10464000F9703A80BB70FB785BB2002B0CDAFB7818
:1046500003F07F0213469B001344DB0003F58C73C9
:104660007A681344FB600BE0FB7803F07F0213468B
:104670009B001344DB0003F55C737A681344FB6012
:10468000FB7803F07F03DAB2FB681A70FB78DB0972
:10469000DBB21A46FB685A703A88FB689A60FB687E
:1046A000BA78DA70FB685B78002B04D0FB681B7863
:1046B0001A46FB68DA80BB78022B02D1FB68002225
:1046C0001A717868F968FCF71FFB00231846103749
:1046D000BD4680BD80B584B000AF78600B46FB70EE
:1046E000FB785BB2002B0CDAFB7803F07F021346F9
:1046F0009B001344DB0003F58C737A681344FB6062
:104700000BE0FB7803F07F0213469B001344DB00B1
:1047100003F55C737A681344FB60FB7803F07F0356
:10472000DAB2FB681A70FB78DB09DBB21A46FB6869
:104730005A707868F968FCF755FB00231846103763
:10474000BD4680BD80B586B000AFF8607A600A468D
:10475000FA723B81FB7A03F07F0213469B001344FD
:10476000DB0003F55C73FA6813447B617B697A684C
:10477000DA603A897B695A617B6900229A617B69B8
:1047800000225A70FB7A03F07F03DAB27B691A7059
:10479000FB68DB78012B02D17A687B691A617B693F
:1047A0001B78002B04D1F8687969FCF7A1FC03E0C1
:1047B000F8687969FCF75CFB002318461837BD469A
:1047C00080BD00BF80B586B000AFF8607A603B6006
:1047D0000B46FB72FB7A03F07F0213469B001344E7
:1047E000DB0003F58C73FA6813447B617B6901225B
:1047F0005A70FB7A03F07F03DAB27B691A707B6927
:104800007A68DA607A687B691A617B6900229A614A
:104810007B693A685A617B691B78002B04D1F86880
:104820007969FCF765FC03E0F8687969FCF720FB1F
:10483000002318461837BD4680BD00BF80B584B040
:1048400000AF78600B46FB70FB785BB2002B0CDA94
:10485000FB7803F07F0213469B001344DB0003F553
:104860008C737A681344FB6009E0FA7813469B0066
:104870001344DB0003F55C737A681344FB60FB6848
:1048800001229A70FB7803F07F03DAB2FB681A709A
:10489000FB78DB09DBB21A46FB685A707868F96866
:1048A000FCF710FD002318461037BD4680BD00BF41
:1048B00080B584B000AF78600B46FB70FB785BB2CC
:1048C000002B0CDAFB7803F07F0213469B001344A5
:1048D000DB0003F58C737A681344FB6009E0FA7817
:1048E00013469B001344DB0003F55C737A681344A2
:1048F000FB60FB6800229A70FB7803F07F03DAB25A
:10490000FB681A70FB78DB09DBB21A46FB685A7049
:104910007868F968FCF71AFD002318461037BD4681
:1049200080BD00BF80B582B000AF78600B46FB70E1
:10493000FB785BB2002B07DAFB7803F07F03786823
:104940001946FBF70BFF02E07868FBF73FFF0023F7
:1049500018460837BD4680BD80B485B000AF78608A
:104960000B46FB700023FB60FB7803F07F03DAB299
:10497000BB8962F30A13BB817B681B697A68126981
:104980001168FA680A431A601437BD465DF8047B63
:10499000704700BF80B586B000AFF860B9601346BD
:1049A000FB800023FB75FA88FB68C3F83821FA887E
:1049B000FB68C3F83421FB68022283F81121FB88CD
:1049C000F8680021BA68FFF7FDFEFB7D184618372E
:1049D000BD4680BD80B586B000AFF860B9601346B3
:1049E000FB800023FB75FB88F8680021BA68FFF79D
:1049F000E9FEFB7D18461837BD4680BD80B586B000
:104A000000AFF860B9601346FB800023FB75FB889C
:104A1000F8680021BA68FFF795FEFB7D1846183745
:104A2000BD4680BD80B584B000AF78600023FB73C5
:104A30007B68042283F8112178680021002200237A
:104A4000FFF7C0FE7868FCF705FDFB7B18461037C2
:104A5000BD4680BD80B584B000AF78600023FB7395
:104A60007B68052283F81121786800210022002349
:104A7000FFF768FE7868FCF7EDFCFB7B1846103703
:104A8000BD4680BD80B485B000AF7860396000233A
:104A9000FB817B681B88FB817A68284B9A4213D084
:104AA0007A68274B9A420FD07B68B3F1804F0BD0C6
:104AB0007A68244B9A4207D07A68234B9A4203D0F3
:104AC0007A68224B9A4208D1FB8923F07003FB815C
:104AD0003B685A88FB891343FB817A681C4B9A42D6
:104AE0000CD07A681B4B9A4208D0FB8923F44073A0
:104AF000FB813B681A89FB891343FB817B68FA8938
:104B00001A803B685A687B68DA623B681A887B685F
:104B10001A857A68094B9A4203D07A68084B9A4200
:104B200004D13B689B7A1A467B681A867B6801220F
:104B30009A821437BD465DF8047B7047000001403F
:104B4000000401400004004000080040000C004048
:104B5000001000400014004080B483B000AF7860C3
:104B60000B46FB70FB78002B08D07B681B889BB240
:104B700043F001039AB27B681A8007E07B681B88C8
:104B80009BB223F001039AB27B681A800C37BD46B2
:104B90005DF8047B704700BF80B485B000AF7860DB
:104BA000396000237B810023FB810023BB817B686C
:104BB0001B8C9BB223F010039AB27B681A847B682B
:104BC0001B8CFB817B689B88BB817B681B8B7B81FB
:104BD0007B8923F4E0437B817B8923F440737B81D1
:104BE0003B681B881B029AB27B8913437B81FB893C
:104BF00023F02003FB813B689B891B019AB2FB8950
:104C00001343FB813B685B881B019AB2FB8913430A
:104C1000FB817A68224B9A4203D07A68214B9A42F0
:104C20002BD1FB8923F08003FB813B68DB891B01CF
:104C30009AB2FB891343FB81FB8923F04003FB817C
:104C40003B689B881B019AB2FB891343FB81BB899C
:104C500023F48063BB81BB8923F40063BB813B6881
:104C60001B8A9B009AB2BB891343BB813B685B8A5A
:104C70009B009AB2BB891343BB817B68BA899A8037
:104C80007B687A891A833B689A687B689A637B6839
:104C9000FA891A841437BD465DF8047B704700BF5B
:104CA000000001400004014080B485B000AF78608E
:104CB0000B467B800023FB817B681B8BFB81FB8980
:104CC00023F40063FB817B881B029AB2FB891343A8
:104CD000FB817B68FA891A831437BD465DF8047B33
:104CE000704700BF2DE9F041DFF89C808AB0044690
:104CF0000D4600F04DF898F90030013306460F4696
:104D000004D02046294600F063FB20B930463946DE
:104D10000AB0BDE8F0812046294600F055FB00228C
:104D2000164B00F0CDFF0028F0D00123144A009369
:104D30001448019200230893CDE90445CDE90245CA
:104D400000F070FB98F90030022BCDE906010AD083
:104D5000684600F065FB30B1089B4BB9DDE9060100
:104D60000AB0BDE8F08100F0DDFF21230360F3E726
:104D700000F0D8FF089B0360F0E700BF0000F03FA1
:104D8000D85D0008DC5D00082C0100200000000058
:104D90002DE9F84F804F21F00046BE4204460D46F3
:104DA0000EDD06F1404C0CF5801C5CEA000C40F076
:104DB000BB80002940F37C8100200021BDE8F88FF2
:104DC000764FBE4240F3A8800029C0F276810246A9
:104DD0000B460020724900F02FFB0022714B00F0BF
:104DE000DFFC04460D4600F02FFA55A3D3E900235B
:104DF000894680462946204600F0D2FC52A3D3E9DA
:104E0000002300F01BFB22462B4600F0C9FC50A3F8
:104E1000D3E9002300F010FB22462B4600F0C0FC33
:104E20004DA3D3E9002300F009FB22462B4600F0F6
:104E3000B7FC4BA3D3E9002300F0FEFA22462B4631
:104E400000F0AEFC48A3D3E9002300F0F7FA2246B5
:104E50002B4600F0A5FC46A3D3E9002382468B46EF
:104E60002046294600F09CFC43A3D3E9002300F030
:104E7000E3FA22462B4600F093FC41A3D3E900233A
:104E800000F0DCFA22462B4600F08AFC3EA3D3E970
:104E9000002300F0D1FA22462B4600F081FC0022CC
:104EA0003F4B00F0CBFA02460B465046594600F005
:104EB000A1FD42464B4600F073FC002682468B461D
:104EC00032464B463046494600F06AFC02460B46E5
:104ED0002046294600F0B0FA324604460D464B46BD
:104EE0004046494600F0AAFA02460B4620462946AB
:104EF00000F080FD02460B465046594600F09EFAEF
:104F000002460B463046494600F098FA02460B46E8
:104F100000F094FABDE8F88F234B9E4246DC1CA1BA
:104F2000D1E90001BDE8F88F02460B4600F084FA93
:104F300002460B4600F05EFDBDE8F88FAFF300803F
:104F400009F7FD0DE13D023F88B20175E0EF493FF1
:104F50003B8F68B52882A43F5544880E55C1C93F90
:104F60007D6FEB0312D6D43F555555555555C53F6A
:104F700082922EB1C5B8B33F59018D1B6C06E63F36
:104F8000C88A599CE52A00404B2D8A1C273A0340C9
:104F9000182D4454FB21F93FFFFFEF3FFFFFDF3F98
:104FA0000000F03F0000E03F0000603C02460B467E
:104FB00000F0F6FB88A3D3E9002306460F4600F075
:104FC000EFFB87A3D3E9002300F038FA32463B46D3
:104FD00000F0E6FB84A3D3E9002300F02DFA32466B
:104FE0003B4600F0DDFB82A3D3E9002300F026FA64
:104FF00032463B4600F0D4FB7FA3D3E9002300F008
:105000001BFA32463B4600F0CBFB7DA3D3E90023DD
:1050100000F014FA32463B4600F0C2FB7AA3D3E913
:105020000023804689463046394600F0B9FB78A314
:10503000D3E9002300F000FA32463B4600F0B0FB13
:1050400075A3D3E9002300F0F9F932463B4600F09E
:10505000A7FB73A3D3E9002300F0EEF932463B46E9
:1050600000F09EFB0022764B00F0E8F902460B466A
:105070004046494600F0BEFC02460B462046294603
:1050800000F08EFB02460B4667A1D1E9000100F05B
:10509000D3F902460B462046294600F0CDF90246D8
:1050A0000B4663A1D1E9000100F0C6F9BDE8F88F15
:1050B00061A1D1E90001BDE8F88F0022604B00F04A
:1050C000BDF900225F4B00F06BFB43A3D3E9002343
:1050D00004460D4600F064FB41A3D3E9002300F031
:1050E000ADF922462B4600F05BFB3FA3D3E900233A
:1050F00000F0A2F922462B4600F052FB3CA3D3E974
:10510000002300F09BF922462B4600F049FB3AA30E
:10511000D3E9002300F090F922462B4600F040FB33
:1051200037A3D3E9002300F089F922462B4600F08B
:1051300037FB804689462046294600F085F832A391
:10514000D3E9002306460F462046294600F028FBF7
:105150002FA3D3E9002300F06FF922462B4600F07D
:105160001FFB2DA3D3E9002300F068F922462B464C
:1051700000F016FB2AA3D3E9002300F05DF92246D4
:105180002B4600F00DFB00222D4B00F057F9024694
:105190000B464046494600F02DFC32463B4600F0A7
:1051A000FFFA21A3D3E9002300F046F902460B469B
:1051B0003046394600F042F902460B4600F03EF90F
:1051C00002460B461CA1D1E9000100F035F9BDE80B
:1051D000F88F00BFAFF3008009F7FD0DE13D023FFE
:1051E00088B20175E0EF493F3B8F68B52882A43F44
:1051F0005544880E55C1C93F7D6FEB0312D6D43F8D
:10520000555555555555C53F82922EB1C5B8B33F3A
:1052100059018D1B6C06E63FC88A599CE52A00405F
:105220004B2D8A1C273A0340075C143326A6913C79
:10523000182D4454FB21F93F182D4454FB210940FB
:105240000000F03F0000E03F21F0004C2DE9F84362
:105250004FEA1C5CDFF86C814FEA0C5CC4450646E3
:105260000F460B46024600F08F8000296FDD0F15B8
:1052700078D0A7F2FF37C3F31303F90743F4801381
:1052800060D4D10F4FF0000C01EB43037F105200AC
:10529000654616204FF400116C189C424FEAD276F6
:1052A0004FEA420202DC1B1B65188C44013806EBF6
:1052B00043034FEA5101EFD1804620264FF00041D1
:1052C00009E023D0D40F013E4FEA510104EB430320
:1052D0004FEA42021ED0AB4201EB0804F1DD04F0BC
:1052E0000049B9F1004F04EB010809D0A9465B1B46
:1052F000944288BF03F1FF33121B08444D46E1E797
:10530000B8F1000FF2DB05F10109F0E79442E6D9AC
:105310001D46D7E71A4304D0431C41D000F00103D7
:10532000184446084FEA6C031CF0010F03F17F5349
:1053300003F5001318BF46F0004603EB0751304653
:10534000BDE8F883D10F01EB4303520099E721F048
:105350000043034322D051BB0F46D30A153F5205E9
:10536000002BFAD013F480111DD15B00D80201F19B
:105370000101FAD5C1F10100C1F1200422FA04F4BF
:10538000234307448A4074E702460B4600F008FABC
:1053900032463B4600F052F8BDE8F883BDE8F8839A
:1053A0000CF1010CBEE7202401200021E6E70246B3
:1053B0000B4600F041F802460B4600F01BFBBDE82F
:1053C000F88300BF0000F07F21F00041704700BF6C
:1053D00031F0004310B408D00F4AA3F58014944272
:1053E0000AD804205DF8044B704700280CBF022047
:1053F00003205DF8044B7047B3F5801F01D20320F2
:10540000F7E7064A934201D00020F2E7D0F101000D
:1054100038BF0020EDE700BFFFFFDF7F0000F07F17
:105420000020704700200149704700BF0000F87F4E
:1054300081F0004102E000BF83F0004330B54FEA45
:1054400041044FEA430594EA050F08BF90EA020FB2
:105450001FBF54EA000C55EA020C7FEA645C7FEA45
:10546000655C00F0E2804FEA5454D4EB5555B8BF68
:105470006D420CDD2C4480EA020281EA030382EAD9
:10548000000083EA010180EA020281EA0303362D6B
:1054900088BF30BD11F0004F4FEA01314FF4801C3E
:1054A0004CEA113102D0404261EB410113F0004F50
:1054B0004FEA03334CEA133302D0524263EB430307
:1054C00094EA050F00F0A780A4F10104D5F1200EA5
:1054D0000DDB02FA0EFC22FA05F2801841F1000100
:1054E00003FA0EF2801843FA05F359410EE0A5F1D4
:1054F00020050EF1200E012A03FA0EFC28BF4CF005
:10550000020C43FA05F3C01851EBE37101F00045BA
:1055100007D54FF0000EDCF1000C7EEB00006EEBC7
:105520000101B1F5801F1BD3B1F5001F0CD3490851
:105530005FEA30004FEA3C0C04F101044FEA4452A8
:1055400012F5800F80F09A80BCF1004F08BF5FEA2F
:10555000500C50F1000041EB045141EA050130BD0F
:105560005FEA4C0C404141EB010111F4801FA4F1B2
:105570000104E9D191F0000F04BF01460020B1FA07
:1055800081F308BF2033A3F10B03B3F120020CDA3F
:105590000C3208DD02F1140CC2F10C0201FA0CF01D
:1055A00021FA02F10CE002F11402D8BFC2F1200C82
:1055B00001FA02F120FA0CFCDCBF41EA0C01904038
:1055C000E41AA2BF01EB0451294330BD6FEA040481
:1055D0001F3C1CDA0C340EDC04F11404C4F120026C
:1055E00020FA04F001FA02F340EA030021FA04F37E
:1055F00045EA030130BDC4F10C04C4F1200220FAD5
:1056000002F001FA04F340EA0300294630BD21FA12
:1056100004F0294630BD94F0000F83F4801306BFD8
:1056200081F480110134013D4EE77FEA645C18BFCC
:105630007FEA655C29D094EA050F08BF90EA020F63
:1056400005D054EA000C04BF1946104630BD91EA5B
:10565000030F1EBF0021002030BD5FEA545C05D15E
:105660004000494128BF41F0004130BD14F580049D
:105670003CBF01F5801130BD01F0004545F0FE4111
:1056800041F470014FF0000030BD7FEA645C1ABF46
:10569000194610467FEA655C1CBF0B46024650EA7D
:1056A000013406BF52EA033591EA030F41F40021A9
:1056B00030BD00BF90F0000F04BF0021704730B52F
:1056C0004FF4806404F132044FF000054FF0000104
:1056D00050E700BF90F0000F04BF0021704730B5C5
:1056E0004FF4806404F1320410F0004548BF40429A
:1056F0004FF000013EE700BF42004FEAE2014FEAEF
:1057000031014FEA02701FBF12F07F4393F07F4FC9
:1057100081F06051704792F0000F14BF93F07F4FFB
:10572000704730B54FF4607401F0004521F000413E
:1057300020E700BF50EA010208BF704730B54FF0C4
:1057400000050AE050EA010208BF704730B511F0C9
:10575000004502D5404261EB41014FF4806404F101
:1057600032045FEA915C3FF4DCAE4FF003025FEA83
:10577000DC0C18BF03325FEADC0C18BF033202EB0B
:10578000DC02C2F1200300FA03FC20FA02F001FA65
:1057900003FE40EA0E0021FA02F11444C1E600BF04
:1057A00070B54FF0FF0C4CF4E06C1CEA11541DBFB7
:1057B0001CEA135594EA0C0F95EA0C0F00F0DEF882
:1057C0002C4481EA030621EA4C5123EA4C5350EA67
:1057D000013518BF52EA033541F4801143F48013B8
:1057E00038D0A0FB02CE4FF00005E1FB02E506F049
:1057F0000042E0FB03E54FF00006E1FB03569CF09E
:10580000000F18BF4EF0010EA4F1FF04B6F5007FA3
:1058100064F5407404D25FEA4E0E6D4146EB060615
:1058200042EAC62141EA55514FEAC52040EA5E509E
:105830004FEACE2EB4F1FD0C88BFBCF5E06F1ED848
:10584000BEF1004F08BF5FEA500E50F1000041EB7F
:10585000045170BD06F0004646EA010140EA02002C
:1058600081EA0301B4EB5C04C2BFD4EB0C0541EA4E
:10587000045170BD41F480114FF0000E013C00F363
:10588000AB8014F1360FDEBF002001F0004170BD87
:10589000C4F10004203C35DA0C341BDC04F11404A0
:1058A000C4F1200500FA05F320FA04F001FA05F22C
:1058B00040EA020001F0004221F0004110EBD370F9
:1058C00021FA04F642EB06015EEA430E08BF20EA25
:1058D000D37070BDC4F10C04C4F1200500FA04F3C8
:1058E00020FA05F001FA04F240EA020001F000415A
:1058F00010EBD37041F100015EEA430E08BF20EACD
:10590000D37070BDC4F1200500FA05F24EEA020E14
:1059100020FA04F301FA05F243EA020321FA04F043
:1059200001F0004121FA04F220EA020000EBD370FA
:105930005EEA430E08BF20EAD37070BD94F0000FFA
:105940000FD101F00046400041EB010111F4801F2E
:1059500008BF013CF7D041EA060195F0000F18BFDF
:10596000704703F00046520043EB030313F4801F1B
:1059700008BF013DF7D043EA0603704794EA0C0FD5
:105980000CEA135518BF95EA0C0F0CD050EA4106EB
:1059900018BF52EA4306D1D181EA030101F0004168
:1059A0004FF0000070BD50EA410606BF1046194690
:1059B00052EA430619D094EA0C0F02D150EA01369C
:1059C00013D195EA0C0F05D152EA03361CBF1046DD
:1059D00019460AD181EA030101F0004141F0FE417C
:1059E00041F470014FF0000070BD41F0FE4141F400
:1059F000780170BD70B54FF0FF0C4CF4E06C1CEA00
:105A000011541DBF1CEA135594EA0C0F95EA0C0FB4
:105A100000F0A7F8A4EB050481EA030E52EA03356F
:105A20004FEA013100F088804FEA03334FF0805590
:105A300045EA131343EA12634FEA022245EA1115BD
:105A400045EA10654FEA00260EF000419D4208BF6E
:105A5000964244F1FD0404F5407402D25B084FEA1B
:105A60003202B61A65EB03055B084FEA32024FF4C7
:105A700080104FF4002CB6EB020E75EB030E22BF24
:105A8000B61A754640EA0C005B084FEA3202B6EBE4
:105A9000020E75EB030E22BFB61A754640EA5C0093
:105AA0005B084FEA3202B6EB020E75EB030E22BF23
:105AB000B61A754640EA9C005B084FEA3202B6EB24
:105AC000020E75EB030E22BFB61A754640EADC00E3
:105AD00055EA060E18D04FEA051545EA16754FEA45
